:020000040800F2
:10000000D0730020650100087135000873350008C1
:10001000773500087B3500087F35000800000000B8
:100020000000000000000000000000008335000810
:100030008535000800000000873500088935000874
:100040007F0100087F0100087F0100087F01000890
:100050007F0100087F0100087F0100087F01000880
:100060007F0100087F0100087F0100087F01000870
:100070007F0100087F0100087F0100087F01000860
:100080007F0100087F0100087F0100087F01000850
:100090007F0100087F0100087F0100087F01000840
:1000A0007F0100087F0100087F0100087F01000830
:1000B0007F010008933600087F0100087F010008D7
:1000C0007F0100087F0100087F0100087F01000810
:1000D0007F01000895350008DB350008213600084F
:1000E0007F0100087F0100087F0100080000000078
:1000F0000000000000000000000000000000000000
:1001000000000000000000007F0100087F010008DF
:100110007F0100087F0100087F0100087F010008BF
:100120007F0100087F0100087F0100087F010008AF
:100130007F0100087F0100087F0100087F0100089F
:10014000673600087F0100087F010008B336000809
:10015000DFF80CD011F00AFF0048004759350008BD
:10016000D07300200648804706480047FEE7FEE7B8
:10017000FEE7FEE7FEE7FEE7FEE7FEE7FEE7FEE757
:1001800099020008510100080CB500200190009070
:100190009248006840F480309049086000BF8F4862
:1001A000006800F4003000900198401C0190009815
:1001B00018B90198B0F5A06FF1D18848006800F433
:1001C000003010B10120009001E000200090009864
:1001D00001285CD18248006840F010008049086026
:1001E0000846006820F0030008600846006840F0F8
:1001F00002000860794840687849486008464068CD
:1002000048600846406840F4806048600846C06A1C
:10021000744908407149C8620846C06A7249084377
:100220006E49C8620846006840F08060086000BF00
:100230006A48006800F000600028F9D0674840680C
:1002400020F47C10654948600846406840F4E81096
:1002500048600846006840F08070086000BF5F4852
:10026000006800F000700028F9D05C48406820F079
:1002700003005A4948600846406840F00200486060
:1002800000BF5648406800F00C000828F9D10CBDAA
:1002900010B5FFF779FF10BD10B55048006840F069
:1002A00001004E49086008464068504908404B49E3
:1002B0004860084600684E490840484908600846BA
:1002C000006820F4802008600846406820F4FE00A2
:1002D00048600846006820F0A05008604FF47F0096
:1002E00088600020C862FFF7D3FF4FF000604149EB
:1002F000086010BDF0B5002100200023002400227A
:1003000000250026354F7F6807F00C0121B1042934
:1003100008D008294BD10BE0374FDFF8E0C0CCF80C
:1003200000704AE0364FDFF8D4C0CCF8007044E0EB
:100330002A4F7F6807F47010284F7F6807F48033D6
:10034000800C0D2801D0801C00E0062033B92D4F11
:100350004743DFF8A8C0CCF8007027E01F4FFF6AC2
:1003600007F480341D4FFF6A07F00F077A1C44B969
:10037000234FB7FBF2F74743DFF880C0CCF800709B
:1003800014E0164FFF6AC7F303177D1C134FFF6A73
:10039000C7F30327BE1C1A4FB7FBF5F77743B7FB2C
:1003A000F2F74743DFF854C0CCF8007005E0124F75
:1003B000DFF848C0CCF8007000BF00BF074F7F686F
:1003C000C7F30317DFF840C01CF807100B4F3F6856
:1003D000CF40DFF828C0CCF80070F0BD001002401C
:1003E0000020024000F0FEFF440601000000FFF084
:1003F000FFFFF6FE08ED00E000127A00000000208A
:1004000040787D0100093D0004000020314901438E
:10041000314A1160704770B5002100230F22C47863
:1004200004B32D4C246804F4E064C4F5E064210AAC
:10043000C1F10403CA40447804FA03F184781440FB
:1004400021430901254C0678A155047804F01F05C5
:100450000124AC4005786D11AD0005F1E025C5F82B
:10046000004109E0047804F01F050124AC401C4D54
:100470000678761145F8264070BD1A4A0A400243B4
:10048000154B1B1F1A60704739B1134A121D1268B1
:100490000243114B1B1D1A6006E00F4A121D126821
:1004A00082430D4B1B1D1A607047042808D14FF082
:1004B000E021096941F004014FF0E022116107E0F9
:1004C0004FF0E021096921F004014FF0E0221161B1
:1004D000704700000000FA050CED00E000E400E0C9
:1004E00080E100E080FFFF1F01460020FE4A106807
:1004F00000F03800084310607047FB49096821F09C
:100500000801F94A116011460968014311607047FA
:10051000F549096821F01001F34A11601146096894
:10052000014311607047F148EF494860F048486066
:100530007047EE48EC494860ED4848607047EA482B
:10054000006940F08000E84908617047E6480069AA
:1005500040F08000E449086170470420E249C9681E
:1005600001F0010109B101200EE0DF49C96801F085
:10057000040109B1022007E0DB49C96801F010015C
:1005800009B1032000E00420704700B502460423AF
:10059000FFF7E3FF034603E0FFF7DFFF0346521ECA
:1005A000012B01D1002AF7D102B90523184600BD5D
:1005B00030B5044604254FF43020FFF7E6FF05462A
:1005C000042D17D1C848006940F00200C6490861EF
:1005D00008464461006940F0400008614FF4302053
:1005E000FFF7D3FF0546C048006941F6FD7108409A
:1005F000BD490861284630BD10B504244FF43020B1
:10060000FFF7C3FF0446042C16D1B748006940F039
:100610000400B54908610846006940F040000861DF
:100620004FF43020FFF7B1FF0446AF48006941F6B0
:10063000FB710840AC490861204610BD00B5024678
:100640000423FFF78AFF034603E0FFF786FF034614
:10065000521E012B01D1002AF7D102B905231846F9
:1006600000BD10B504244FF43020FFF7E7FF044627
:10067000042C16D19C48006940F004009A49086196
:100680000846006940F0400008614FF43020FFF751
:10069000D5FF04469448006941F6FB710840924931
:1006A0000861204610BD00208F49C96901F0020190
:1006B00009B1012000E00020704730B5A5250424D1
:1006C000FFF7F1FF00B100254FF43020FFF75DFF89
:1006D0000446042C3AD18548834988608448886060
:1006E0000846006940F0200008610846006940F0B3
:1006F000400008614FF43020FFF747FF0446042C08
:100700001BD17948006941F6DF71084076490861DC
:100710000846006940F01000086176480580E00254
:10072000FFF733FF0446052C10D06F48006941F6EF
:10073000EF7108406C49086108E0052C06D06A4852
:10074000006941F6EF71084067490861204630BDF5
:1007500078B506460C46042500200090E802FFF715
:1007600014FF0546042D24D15F48006940F00100C4
:100770005D4908613480E802FFF707FF0546042D54
:1007800010D1B01C0090200C00990880E802FFF7FF
:10079000FCFE05465448006941F6FE710840524986
:1007A000086106E05048006941F6FE7108404E4974
:1007B0000861284678BD70B504460D460426F0024F
:1007C000FFF7E3FE0646042E11D14748006940F0CA
:1007D0000100454908612580F002FFF7D6FE064674
:1007E0004148006941F6FE7108403F4908613046C2
:1007F00070BD70B505460E460424E002FFF7C5FE45
:100800000446042C17D13948374988603848886035
:100810000846006940F0100008612E80E002FFF7F2
:10082000B4FE0446052C06D02F48006941F6EF714E
:1008300008402D490861204670BD2DE9F04304466B
:100840004FF6FF763746B046B1460425E443E6B29C
:10085000C4F30727C4F307484FEA1469E802FFF717
:1008600094FE0546042D49D120481F498860204840
:1008700088600846006940F010000861FF2E06D02D
:100880001C4808300680E802FFF77FFE0546042D6D
:1008900008D1FF2F06D017480A300780E802FFF77B
:1008A00074FE0546042D0AD1B8F1FF0F07D0114898
:1008B0000C30A0F80080E802FFF767FE0546042D23
:1008C0000AD1B9F1FF0F07D00A480E30A0F8009006
:1008D000E802FFF75AFE0546052D0FD002480069D1
:1008E00041F6EF71084007E0002002402301674510
:1008F000AB89EFCD00F8FF1F664908612846BDE8C7
:10090000F08330B5054604244FF43020FFF73DFE58
:100910000446042C41D160485E4988605F48886085
:100920000846006940F0200008610846006940F070
:10093000400008614FF43020FFF727FE0446042CE6
:1009400022D15448006941F6DF71084051490861DD
:100950000846006940F0100008611DB100205049B0
:10096000088002E0A5204E4908804FF43020FFF7B0
:100970000CFE0446052C10D04648006941F6EF7184
:1009800008404449086108E0052C06D04148006948
:1009900041F6DF7108403F490861204630BDF0B59F
:1009A00005460E46174604243B483A4988603B48B2
:1009B0008860E002FFF7E9FD0446042C19D13548B0
:1009C000006940F010003349086147F0F8003043F7
:1009D00028433349891C0880E002FFF7D6FD04460E
:1009E000052C06D02B48006941F6EF7108402949D3
:1009F00008612046F0BD2748C06980087047254837
:100A0000006A704700202349096801F0200109B1FC
:100A1000012000E00020704729B11E4A12690243FC
:100A20001C4B1A6104E01B4A12698243194B1A617C
:100A3000704701460020012908D1164AD26902F008
:100A400001020AB1012008E0002006E0114AD26844
:100A50000A400AB1012000E0002070470D49C8603B
:100A6000704704200B49C96801F0010109B1012058
:100A70000EE00849C96801F0040109B1022007E04D
:100A80000449C96801F0100109B1032000E0042005
:100A9000704700000020024023016745AB89EFCD7D
:100AA00000F8FF1F10B50446CC48844208D101214C
:100AB000042000F0E9FB0021042000F0E5FB46E003
:100AC000C748844208D10121082000F0DDFB002145
:100AD000082000F0D9FB3AE0C248844208D1012145
:100AE000102000F0D1FB0021102000F0CDFB2EE003
:100AF000BD48844208D10121202000F0C5FB00211F
:100B0000202000F0C1FB22E0B848844208D1012136
:100B1000402000F0B9FB0021402000F0B5FB16E0BA
:100B2000B348844208D10121802000F0ADFB0021B0
:100B3000802000F0A9FB0AE0AE48844207D10121E1
:100B4000801500F0A1FB0021A01500F09DFB10BD59
:100B500010B50121084600F097FB0021012000F0AC
:100B600093FB10BD2DE9F041024600250026002030
:100B700000230024002791F803C00CF00F0591F822
:100B800003C00CF0100CBCF1000F03D091F802C0B0
:100B90004CEA050591F800C0BCF1000F31D0146893
:100BA00000202BE04FF0010C0CFA00F3B1F800C06C
:100BB0000CEA03069E4220D183004FF00F0C0CFA82
:100BC00003F7BC4305FA03FC4CEA040491F803C0A4
:100BD000BCF1280F06D14FF0010C0CFA00FCC2F852
:100BE00014C00AE091F803C0BCF1480F05D14FF0E2
:100BF000010C0CFA00FCC2F810C0401C0828D1D32C
:100C00001460B1F800C0BCF1FF0F34DD546800205F
:100C10002EE000F1080C4FF0010808FA0CF3B1F8CF
:100C200000C00CEA03069E4221D183004FF00F0C56
:100C30000CFA03F7BC4305FA03FC4CEA040491F8F0
:100C400003C0BCF1280F05D100F1080C08FA0CF81C
:100C5000C2F8148091F803C0BCF1480F07D100F12D
:100C6000080C4FF0010808FA0CF8C2F81080401C7C
:100C70000828CED35460BDE8F0814FF6FF710180A3
:100C8000022181700421C1707047024600209368E0
:100C90000B400BB1012000E000207047014688683E
:100CA00080B2704702460020D3680B400BB1012090
:100CB00000E0002070470146C86880B270470161BB
:100CC0007047416170470AB1016100E041617047BE
:100CD000C16070474FF480320A4382618161826152
:100CE00082698269704702460020434B18684FF6BC
:100CF0008073184040EA021008433F4B1860704769
:100D00003E49C8617047F0B50A460023002400211F
:100D1000002500F00046B6F1004F02D1364EF169D1
:100D200001E0354E7168C0F3034583B200F440160C
:100D3000B6F5401F08D121F070612F4E766826F07D
:100D400070662D4F7E6012E000F48016B6F5801FAD
:100D500006D1032606FA05F4A14341F0706106E0CE
:100D6000460D360103FA06F6B14341F0706122B137
:100D7000460D360103FA06F6314300F00046B6F19F
:100D8000004F02D11C4EF16101E01B4E7160F0BDBD
:100D900030B500228B071C0F0F2303FA04F2164B09
:100DA00008338C1053F824309343134C08348D10BF
:100DB00044F8253023468C1053F824308C07240F38
:100DC00000FA04F423430C4C08348D1044F8253009
:100DD00030BD0A49DC31086070470000000801405E
:100DE000000C0140001001400014014000180140B7
:100DF000001C014000200140000001400000204292
:100E0000FB48006840F00100F94908600846406866
:100E1000F8490840F649486008460068F649084025
:100E2000F34908600846006820F4802008600846FE
:100E3000406820F4FE0048600846006820F0A0509A
:100E400008604FF47F0088600020C8627047E8495E
:100E5000096821F48031E64A11601146096821F4DD
:100E600080211160B0F5803F03D0B0F5802F0ED106
:100E700006E0DF49096841F48031DD4A116007E08E
:100E8000DB49096841F4A021D94A116000E000BFA4
:100E900000BF704710B501460022002300204A1110
:100EA000012A02D1D24C236806E0022A02D1D04C9A
:100EB000236A01E0CE4C636A01F01F0201249440D2
:100EC0001C400CB1012000E0002010BD38B500200E
:100ED00000900024002500BF3120FFF7DBFF05460E
:100EE0000098401C00900098B0F5A06F01D0002D34
:100EF000F2D03120FFF7CEFF08B1012400E000243A
:100F0000204638BD01460020B94A106820F0F8009C
:100F100040EAC10010607047B84908607047024657
:100F20000020B34B586820F4741042EA01031843C0
:100F3000AF4B58607047B1490866704702460020C1
:100F4000AB4BD86AAE4B184042EA01031843A84B9A
:100F5000D862704701460020A54AD06A20F0F00010
:100F60000843D062704701460020A14AD06A20F4AD
:100F700070600843D0627047A04988667047014698
:100F800000209B4AD06A20F470400843D06270472A
:100F90009A490867704701460020954A506820F03A
:100FA00003000843506070479148406800F00C000F
:100FB0007047014600208E4A506820F0F000084338
:100FC0005060704701460020894A506820F4E06074
:100FD00008435060704701460020854A506820F45D
:100FE000605040EAC1005060704729B1804A527A8F
:100FF00002437F4B5A7204E07D4A527A82437C4B13
:101000005A7270477D49D831086070470146002008
:10101000774A506820F4404008435060704779494F
:10102000086070477749091D086070470021704AC1
:10103000203211706E4A82F82010012802D0042854
:101040000AD104E001216A4A2032117005E005212D
:10105000674A2032117000E000BF00BF70476A4944
:10106000086070476249096A0143614A116270472A
:1010700065494439086070472DE9F041002100229C
:10108000002500230026002400278C46DFF860811D
:10109000D8F8048008F00C0121B1042907D00829F0
:1010A00059D109E0DFF86481C0F8008058E0DFF82A
:1010B0006081C0F8008053E0DFF83481D8F8048004
:1010C00008F47012DFF82881D8F8048008F480351D
:1010D000920C0D2A01D0921C00E0062235B9DFF8EF
:1010E000348102FB08F8C0F8008033E0DFF80081AB
:1010F000D8F82C8008F48036DFF8F480D8F82C80FB
:1011000008F00F0808F1010446B9DFF80481B8FBC4
:10111000F4F808FB02F8C0F800801BE0DFF8D0808C
:10112000D8F82C80C8F3031808F10107DFF8C08055
:10113000D8F82C80C8F3032808F1020CDFF8D0801F
:10114000B8FBF7F808FB0CF8B8FBF4F808FB02F85A
:10115000C0F8008004E0DFF8B480C0F8008000BF71
:1011600000BFDFF88C80D8F8048008F0F00109098E
:10117000DFF8A48018F80130D0F8008028FA03F8CE
:10118000C0F80480DFF86880D8F8048008F4E061D3
:10119000090ADFF8848018F80130D0F8048028FAB2
:1011A00003F8C0F80880DFF84880D8F8048008F415
:1011B0006051C90ADFF8608018F80130D0F8048067
:1011C00028FA03F8C0F80C80DFF82480D8F80480EF
:1011D00008F44041890BDFF8448018F80130D0F85A
:1011E0000C80B8FBF3F8C0F81080BDE8F081000077
:1011F000001002400000FFF0FFFFF6FE0000424238
:10120000F0FFFEFFC40542428004424200127A0011
:1012100040787D0100093D001400002024000020DA
:1012200029B1354A52690243334B5A6104E0324ACC
:1012300052698243304B5A61704729B12E4A9269F4
:1012400002432D4B9A6104E02B4A926982432A4B58
:101250009A61704729B1284AD2690243264BDA6164
:1012600004E0254AD2698243234BDA61704729B1F1
:10127000214A926A0243204B9A6204E01E4A926A13
:1012800082431D4B9A62704729B11B4AD2680243C0
:10129000194BDA6004E0184AD2688243164BDA60D0
:1012A000704729B1144A12690243134B1A6104E0D2
:1012B000114A12698243104B1A6170470F49086046
:1012C00070470F49C86470470B49C87170470A4896
:1012D000406A40F08070084948627047014600202B
:1012E000054A92680A400AB1012000E000207047D8
:1012F00001498872704700000010024040044242D9
:101300000000424210B50446FE48844208D1012143
:10131000C014FFF7B9FF0021E014FFF7B5FFC4E0E8
:10132000B4F1804F08D101210846FFF7BAFF002130
:101330000120FFF7B6FFB8E0F348844208D101214D
:101340000220FFF7AEFF00210220FFF7AAFFACE06A
:10135000EE48844208D101210420FFF7A2FF0021BA
:101360000420FFF79EFFA0E0E948844208D1012154
:101370000820FFF796FF00210820FFF792FF94E076
:10138000E448844208D101211020FFF78AFF0021A0
:101390001020FFF786FF88E0DF48844208D1012152
:1013A0002020FFF77EFF00212020FFF77AFF7CE05E
:1013B000DA48844208D101214014FFF765FF00217B
:1013C0006014FFF761FF70E0D548844209D1012124
:1013D000C804FFF759FF00214FF40020FFF754FF26
:1013E00063E0D048844209D101210805FFF74CFF92
:1013F00000214FF48010FFF747FF56E0CA488442AF
:1014000009D101214805FFF73FFF00214FF40010EB
:10141000FFF73AFF49E0C548844208D10121402046
:10142000FFF73FFF00214020FFF73BFF3DE0C048B2
:10143000844208D101218020FFF733FF0021802062
:10144000FFF72FFF31E0BB48844208D1012180150E
:10145000FFF727FF0021A015FFF723FF25E0B6487F
:10146000844209D101210804FFF70EFF00214FF447
:101470008030FFF709FF18E0B048844209D101210C
:101480004804FFF701FF00214FF40030FFF7FCFE96
:101490000BE0AB48844208D101218804FFF7F4FE39
:1014A00000214FF48020FFF7EFFE10BD00220288DC
:1014B000944B98420ED0994B98420BD0B0F1804F8C
:1014C00008D0914B984205D0904B984202D0904B57
:1014D000984204D14FF68F731A404B881A438D4BB4
:1014E000984207D08C4B984204D04FF6FF431A40E5
:1014F000CB881A4302808B8883850B880385814BB8
:1015000098420BD0854B984208D08B4B984205D01F
:101510008A4B984202D08A4B984201D10B7A0386BB
:1015200001238382704770B5002400220023058CBC
:101530004FF6FE7635400584028C8388048B4FF687
:101540008F752C40B51E2C400D882C43751E2A40EB
:101550000D892A434D882A436A4DA8420BD06F4D0E
:10156000A84208D0744DA84205D0744DA84202D0BC
:10157000734DA84213D14FF6F7752A404D892A437F
:101580004FF6FB752A408D882A434FF6FF652B40A6
:101590004FF6FF552B408D892B43CD892B438380FC
:1015A0000483CD888586028470BD70B50024002236
:1015B0000023058C4FF6EF7635400584028C838836
:1015C000048B48F6FF752C404FF6FF452C400D88E4
:1015D0004FF6FF7606EA05252C434FF6DF752A40C5
:1015E0000D8906EA05152A434D8806EA05152A43A2
:1015F000444DA84202D0494DA8421DD14FF67F75F7
:101600002A404D894FF6FF7606EA05152A434FF624
:10161000BF752A408D8806EA05152A434FF6FF3527
:101620002B404FF2FF752B408D8906EA85052B4331
:10163000CD8906EA85052B4383800483CD88058701
:10164000028470BD70B5002400220023058C4FF683
:10165000FF6635400584028C8388848B4FF68F7536
:101660002C404FF6FC752C400D882C434FF6FF554F
:101670002A400D894FF6FF7606EA05252A434D8854
:1016800006EA05252A431F4DA84202D0234DA84251
:101690001DD14FF2FF752A404D894FF6FF7606EABD
:1016A00005252A434FF6FF352A408D8806EA052591
:1016B0002A434EF6FF752B404DF6FF752B408D8962
:1016C00006EA05152B43CD8906EA05152B438380D1
:1016D0008483CD888587028470BD70B50022002385
:1016E0000024058C4EF6FF7635400584038C8488F3
:1016F000828B48F6FF752A404FF6FF452A400D8839
:1017000020E00000002C01400004004000080040E0
:10171000000C004000100040001400400034014064
:10172000004C0140005001400054014000180040AE
:10173000001C0040002000400040014000440140E7
:10174000004801404FF6FF7606EA05252A434DF68C
:10175000FF752B400D8906EA05352B434D8806EAB7
:1017600005352B43FA4DA84202D0FA4DA84208D1C4
:101770004BF6FF752C408D894FF6FF7606EA8515EE
:101780002C4384808283CD88A0F84050038470BDB0
:10179000828B4FF2FF331A408283828B4FF6FF73A6
:1017A00003EA01231A4382837047F0B50C461546BD
:1017B000002200210026078C4EF6FF7C07EA0C076A
:1017C0000784828B018C4FF6FF7707EA043640F6D8
:1017D000FF473A404FF6FF7707EA05273A434FF6AF
:1017E000FF7707EA03373A43D94FB8420ED0D94FB3
:1017F000B8420BD0B0F1804F08D0D74FB84205D0D7
:10180000D64FB84202D0D64FB84206D14DF6FF7738
:10181000394046F48057394305E047F6FF573940D1
:1018200044F48057394382830184F0BD828B4FF6A4
:10183000F3731A408283828B0A4382837047F0B528
:101840000C461546002200210026078C4FF6FF6C3F
:1018500007EA0C070784828B018C4FF6FF7707EAB3
:1018600004264FF60C773A404FF6FF7707EA031746
:101870002F433A43B64FB8420ED0B64FB8420BD0C2
:10188000B0F1804F08D0B44FB84205D0B34FB84242
:1018900002D0B34FB84206D14FF6FF57394046F455
:1018A0008077394305E04FF2FF57394044F48077A1
:1018B000394382830184F0BD028B4FF2FF331A401B
:1018C0000283028B4FF6FF7303EA01231A4302835C
:1018D0007047F0B50C461546002200210026078C03
:1018E0004FF6EF7C07EA0C070784028B018C4FF65A
:1018F000FF7707EA041640F6FF473A404FF6FF77B6
:1019000007EA03373A434FF6FF7707EA05273A43DA
:101910008F4FB8420ED08F4FB8420BD0B0F1804FEE
:1019200008D08D4FB84205D08C4FB84202D08C4FB2
:10193000B84206D14FF6DF77394046F010073943F9
:1019400005E04FF65F77394044F0100739430283D2
:101950000184F0BD028B4FF6F3731A400283028BB1
:101960000A4302837047F0B50C4615460022002159
:10197000068C4FF6FE773E400684028B018C4FF6B4
:101980000C7632407E1C06EA03162E433243704E1C
:10199000B0420ED06F4EB0420BD0B0F1804F08D0A5
:1019A0006D4EB04205D06D4EB04202D06C4EB0428A
:1019B00006D14FF6FD76314044F00106314305E093
:1019C0004FF6F576314044F001063143028301843D
:1019D000F0BD70B505460C465D4885420ED05D48A9
:1019E00085420BD0B5F1804F08D05B48854205D0C9
:1019F0005A48854202D05A48854200D100E000BFD3
:101A0000208850B92389A28861882846FFF7ABFF58
:101A1000E1882846FFF79EFF25E0208804280AD1A8
:101A20002389A28861882846FFF753FFE18828466A
:101A3000FFF742FF17E0208808280AD12389A288EF
:101A400061882846FFF7FBFEE1882846FFF7EEFE97
:101A500009E02389A28861882846FFF7A6FEE1886D
:101A60002846FFF795FE70BD2DE9F04105460C466E
:101A700000260127608808B9022600E00026A08819
:101A8000012801D1022700E001272088A0B923897D
:101A9000A28861882846FFF766FFE1882846FFF79D
:101AA00059FF23893A4631462846FFF712FFE1885D
:101AB0002846FFF701FF13E02389A28861882846A2
:101AC000FFF707FFE1882846FFF7F6FE23893A462D
:101AD00031462846FFF747FFE1882846FFF73AFFDF
:101AE000BDE8F0810A884B881A438B881A43CB885B
:101AF0001A430B891A434B891A438B891A43A0F85E
:101B0000442070474FF6FF71818000210180C18021
:101B10004180017270470021018041808180C18035
:101B2000018141818181C181704700210180418013
:101B3000012181800021C180018170470021018045
:101B400041808180C1800181418181817047000095
:101B5000002C014000340140000400400008004017
:101B6000000C004021B1028842F00102028004E032
:101B700002884FF6FE731A400280704731B1B0F808
:101B8000442042F40042A0F8442005E0B0F844208C
:101B9000C2F30E02A0F8442070471AB183890B43A8
:101BA000838102E083898B43838170478182704700
:101BB00041EA0203A0F8483070471AB183890B4309
:101BC000838102E083898B438381704701894FF6CB
:101BD000F8721140018170470A46002101894FF6D1
:101BE0008F73194011430181704730B504460D468B
:101BF00029462046FFF7F0FF208940F007002081AA
:101C000030BD2DE9F04104460D4616461F46602DB5
:101C100006D13B46012231462046FFF75AFE05E039
:101C20003B46012231462046FFF79DFE29462046CD
:101C3000FFF7D2FF208940F007002081BDE8F08146
:101C400030B50C4600210189C9B24FF6FF7505EA8F
:101C50000325154325432943018130BD2DE9F0417A
:101C600005460E4617469846002443463A463146F6
:101C70002846FFF7E5FF2C894FF6F870044044F042
:101C800007044FF68F70044044F070042C81BDE8C7
:101C9000F081F0B504460D4616461F463B463246D7
:101CA00029462046FFF7CCFF208940F48040208160
:101CB000F0BD0185828270470A46002101884FF6F7
:101CC0008F731940114301807047F0B50C461546DB
:101CD0001E460021002200230189028B038C4FF64F
:101CE000F877394021434FF6FC473A4040F201175C
:101CF0003A434FF6DD773B404FF6FF7707EA06178A
:101D00002F433B43018102830384F0BD0A46002137
:101D1000018B4FF68F7319401143018370470A46B8
:101D20000021018B48F6FF7319404FF6FF7303EA59
:101D300002231943018370470A460021818B4FF625
:101D40008F7319401143818370470A460021818BAC
:101D500048F6FF7319404FF6FF7303EA0223194355
:101D60008183704721B1028842F08002028004E042
:101D700002884FF67F731A400280704721B1828833
:101D800042F00402828004E082884FF6FB731A401E
:101D90008280704721B1828842F00802828004E08C
:101DA00082884FF6F7731A408280704721B182888B
:101DB00042F00102828004E082884FF6FE731A40EE
:101DC000828070470A460021018B4FF6F773194055
:101DD0001143018370470A460021018B4FF2FF73C4
:101DE00019404FF6FF7303EA02231943018370473A
:101DF0000A460021818B4FF6F77319401143818306
:101E000070470A460021818B4FF2FF7319404FF64D
:101E1000FF7303EA02231943818370470A460021B6
:101E2000018B4FF6FB7319401143018370470A463B
:101E30000021018B4FF6FF3319404FF6FF7303EA81
:101E400002231943018370470A460021818B4FF614
:101E5000FB7319401143818370470A460021818B2F
:101E60004FF6FF3319404FF6FF7303EA022319437D
:101E7000818370470A460021018B4FF67F7319401A
:101E80001143018370470A460021018BC1F30E0103
:101E90004FF6FF7303EA02231943018370470A4692
:101EA0000021818B4FF67F73194011438183704766
:101EB0000A460021818BC1F30E014FF6FF7303EA3E
:101EC00002231943818370470A460021018C4FF693
:101ED000FD7319401143018470470A460021018CAB
:101EE0004FF6F77319401143018470470A460021E9
:101EF000018C4FF6DF7319404FF6FF7303EA0213AC
:101F00001943018470470A460021018C4FF67F7304
:101F100019404FF6FF7303EA021319430184704717
:101F20000A460021018C4FF6FF5319404FF6FF730C
:101F300003EA02231943018470470A460021018CF9
:101F40004FF2FF7319404FF6FF7303EA0223194360
:101F5000018470470A460021018C4DF6FF73194039
:101F60004FF6FF7303EA023319430184704730B51B
:101F7000002301248C40A3B2048C9C430484048C71
:101F800002FA01F5ADB22C43048430BD30B5002314
:101F900004248C40A3B2048C9C430484048C02FA75
:101FA00001F5ADB22C43048430BD70B5034600206A
:101FB00000241846183001258D40ACB21D8CA54375
:101FC0001D8409B1082909D100EB6100056825F0DD
:101FD000700505600568154305600EE00D1FC5F32B
:101FE0004E052844056825F4E045056005684FF670
:101FF000FF7606EA02263543056070BD21B10288EE
:1020000042F00202028004E002884FF6FD731A409B
:102010000280704721B1028842F00402028004E08D
:1020200002884FF6FB731A400280704721B1828804
:1020300042F08002828004E082884FF67F731A406B
:102040008280704702884FF6F7731A400280028838
:102050000A430280704782884FF68F731A4082804D
:1020600082880A438280704702894FF6F8731A40CB
:10207000028102890A430281704702894FF67F7309
:102080001A40028102890A430281704781847047A5
:1020900081857047818670470187704781877047C7
:1020A000A0F84010704702884FF6FF431A400280A4
:1020B00002880A43028070470146888E70470146B5
:1020C000088F70470146888F70470146B1F840007D
:1020D00070470146888C70470146088D704702465C
:1020E0000020138A0B400BB1012000E00020704754
:1020F000CA430282704730B5024600200023002404
:10210000158A05EA0103958905EA010413B10CB1AA
:10211000012000E0002030BDCA4302827047000069
:1021200010B50446FB48844209D101218803FFF71A
:10213000ABF800214FF48040FFF7A6F832E0F648F4
:10214000844209D101214804FFF7ABF800214FF484
:102150000030FFF7A6F825E0F048844209D10121BC
:102160008804FFF79EF800214FF48020FFF799F8CC
:1021700018E0EB48844209D10121C804FFF791F827
:1021800000214FF40020FFF78CF80BE0E548844273
:1021900008D101210805FFF784F800214FF48010D1
:1021A000FFF77FF810BD2DE9F04786B005460E46D3
:1021B0000024A24600BFA1460027B08900B100BF9D
:1021C0002F462C8A4CF6FF700440F08804432C8282
:1021D000AC894EF6F3100440B08831890843718908
:1021E00008430443AC81AC8A4FF6FF400440B089F9
:1021F0000443AC8201A8FEF73FFFC648874202D1E4
:10220000DDF810A001E0DDF80CA0A88900F4004082
:1022100040B10AEBCA0000EB0A1031684900B0FB7C
:10222000F1F807E00AEBCA0000EB0A1031688900F8
:10223000B0FBF1F86420B8FBF0F004012009642140
:1022400001FB1089A88900F4004040B1322000EB66
:10225000C900B0FBF1F000F00700044308E03220B1
:1022600000EB09106421B0FBF1F000F00F00044313
:102270002C8106B0BDE8F0874FF4165101600021B3
:102280008180C18001810C214181002181817047C1
:1022900010B502460020108A4FF2FF0318400B8849
:1022A0004C8823438C882343CC88234318431082D3
:1022B00010BD0021018041808180C180704721B123
:1022C000828942F40052828104E082894DF6FF73D4
:1022D0001A4082817047F0B503460024002600258D
:1022E000002040F66A17B94200D100BF1846C1F37A
:1022F000421401F01F06012707FA06F5012C01D14F
:102300000C3004E0022C01D1103000E014301AB17E
:1023100007682F43076002E00768AF430760F0BD1E
:102320001AB1838A0B43838202E0838A8B438382C0
:102330007047028A4FF6F0731A400282028A0A43FB
:102340000282704782894FF2FF731A40828182892C
:102350000A438281704721B1828942F00202828160
:1023600004E082894FF6FD731A4082817047028A29
:102370004FF6DF731A400282028A0A4302827047D4
:1023800021B1028A42F48042028204E0028A4BF6C2
:10239000FF731A4002827047C1F3080282807047BF
:1023A00001468888C0F308007047818941F0010127
:1023B00081817047028BD2B20283028B42EA0122F2
:1023C00002837047028B02F47F420283028B0A432E
:1023D0000283704721B1828A42F02002828204E0A7
:1023E000828A4FF6DF731A408282704721B1828A57
:1023F00042F01002828204E0828A4FF6EF731A40A4
:102400008282704721B1828A42F00802828204E00F
:10241000828A4FF6F7731A408282704721B182890F
:1024200042F40042828103E08289C2F30E0282817B
:10243000704721B1828A42F40062828204E0828A7B
:102440004FF2FF731A4082827047828A4FF6FB7305
:102450001A408282828A0A438282704721B1828A2C
:1024600042F00202828204E0828A4FF6FD731A4033
:102470008282704702460020B1F5007F00D100BF84
:1024800013880B400BB1012000E00020704701F4DD
:102490000072B2F5007F00D100BFCA4302807047CE
:1024A00070B50246002400230025002040F66A167D
:1024B000B14200D100BFC1F3421501F01F03012654
:1024C00006FA03F3012D02D19689334006E0022D6E
:1024D00002D1168A334001E0968A33400C1201265D
:1024E00006FA04F41688344013B10CB1012000E060
:1024F000002070BD10B50022002340F66A14A142EE
:1025000000D100BF0A1201249440A3B2DC4304802E
:1025100010BD000000380140004400400048004069
:10252000004C0040005000400E49086070470D49C3
:10253000486070470B49886070474AF6AA200949ED
:10254000086070474CF6CC40064908607047014669
:102550000020044AD2680A400AB1012000E00020AD
:10256000704700000030004010B50446CE48844259
:1025700008D101218014FEF787FE0021A014FEF788
:1025800083FE16E0C948844208D101210014FEF7F9
:1025900088FE00212014FEF784FE0AE0C44884422D
:1025A00007D10121C013FEF77CFE0021E013FEF7E6
:1025B00078FE10BD10B50022028802F441520B884B
:1025C0004C8823438C882343CC8823430C892343A2
:1025D0004C8923438C892343CC8923431A430280AB
:1025E000838B4FF2FF74234083830B8A038210BDD9
:1025F0002DE9F04F85B006460C464FF0000A022741
:102600004FF000084FF0010B0025A946B08B4FF2A8
:1026100040010840B08302203084B6F81CA0A068B6
:10262000022801D100BF59E0A08810B94FF0010B7A
:1026300001E04FF0020B9D48864202D14FF4003575
:1026400001E04FF480259B48C06A2840C8B19948F2
:10265000C06AC0F30335052D03D90F2D01D2AD1C7F
:1026600002E00F2D00D114259248C06AC0F3031078
:1026700000F101099048B0FBF9F068434FEA4009C6
:1026800004E06846FEF7F8FCDDF80090E088B0F55D
:10269000007F0AD14FEA192000EB80004000A168BA
:1026A000B0FBF1F0401D85B20BE04FEA4B10B9FBD7
:1026B000F0F000EB80004000A168B0FBF1F0401D9D
:1026C00085B20A20B5FBF0F505F00108A5EB08007E
:1026D000C0F34F074FF6FF7000EA0828022F01DB16
:1026E000FF2F02DD02274FF00008E08840EA0800D3
:1026F00038433084A088A189084361880843218831
:10270000084340F4006040EA0A0AA6F81CA005B09D
:10271000BDE8F08F0021018041808180C18001816E
:1027200041818181C181072101827047002101809F
:1027300041808180C18002218160002181817047B8
:1027400021B1028842F04002028004E002884FF684
:10275000BF731A400280704721B1828B42F48062BD
:10276000828304E0828B4FF6FF331A4082837047E6
:1027700030B5002400230C110125A540ABB21AB1DD
:1027800085881D43858002E085889D43858030BD16
:102790001AB183880B43838002E083888B43838054
:1027A0007047818170470146888970474FF6FF6204
:1027B000914204D0028842F48072028004E00288D0
:1027C0004FF6FF631A400280704721B1828842F0C1
:1027D0000402828004E082884FF6FB731A408280F4
:1027E000704702884FF2FF731A40028002880A4342
:1027F00002807047018841F480510180704721B107
:10280000028842F40052028004E002884DF6FF7311
:102810001A400280704702460020012901D0108B27
:1028200000E0908A70470146088A7047B1F5804FF2
:1028300004D1028842F48042028004E002884BF610
:10284000FF731A40028070470246002013890B4034
:102850000BB1012000E000207047CA43028170479D
:10286000F0B50246002000240023002501F00F07E8
:102870000126BE40B4B20B1101269E40B3B2968829
:1028800006EA03051689264016B10DB1012000E0C5
:102890000020F0BD10B5002201F00F040123A34079
:1028A0009AB2D343038110BD00300140003800408C
:1028B000003C00400010024040787D0110B5044605
:1028C000FE48844209D101214806FEF7EAFC0021B6
:1028D0004FF00070FEF7E5FC08E001218806FEF7E6
:1028E000E0FC00214FF08060FEF7DBFC10BD30B54E
:1028F000024600200023146824F0020414601468C7
:1029000044F00104146000E05B1C546804F001040E
:102910001CB94FF6FF74A342F6D1546804F00104C9
:102920000CB900206CE08C79012C04D1146844F0BF
:102930008004146003E0146824F080041460CC79EF
:10294000012C04D1146844F04004146003E01468BE
:1029500024F0400414600C7A012C04D1146844F073
:102960002004146003E0146824F0200414604C7AFE
:10297000012C04D1146844F01004146003E01468BE
:1029800024F0100414608C7A012C04D1146844F0F3
:102990000804146003E0146824F008041460CC7A7E
:1029A000012C04D1146844F00404146003E014689A
:1029B00024F0040414608C78A407CD7844EA0564FC
:1029C0000D7944EA05444D7944EA05540D886D1E9D
:1029D0002C43D461146824F001041460002300E047
:1029E0005B1C546804F001041CB14FF6FF74A34251
:1029F000F6D1546804F001040CB1002000E001207D
:102A000030BD10B50021837A012202FA03F1AC4AED
:102A1000126842F00102AA4B1A60A94A1C321268DD
:102A20008A43A74B1C331A60027BCAB9A44A0C32F2
:102A300012688A43A24B0C331A604288C38842EA68
:102A400003439F4A4032847A42F8343002888388B4
:102A500042EA03439A4A4032847A02EBC40253604A
:102A6000027B012A19D1964A0C3212680A43944B10
:102A70000C331A604288038842EA0343904A40328A
:102A8000847A42F83430C288838842EA03438C4A0D
:102A90004032847A02EBC4025360C27A3AB9884A5F
:102AA000121D12688A43864B1B1D1A6006E0844A79
:102AB000121D12680A43824B1B1D1A60028932B92B
:102AC0007F4A143212688A437D4B14331A6002899C
:102AD000012A06D17A4A143212680A43784B143319
:102AE0001A60427B012A06D1754A1C3212680A43D9
:102AF000734B1C331A60724A126822F00102704B49
:102B00001A6010BD00218171C17101724172817220
:102B1000C1728170C17003210171022141710121D3
:102B2000018070476649096841F00101644A1160FB
:102B30001146096843F60E729143614A11601146CD
:102B4000096841EA002111601146096821F001017C
:102B50001160704721B1026842F48032026003E0E4
:102B6000026822F4803202607047E1B1026842F0EC
:102B7000800202604FF4C272125842F480734FF424
:102B8000C27213504FF4CA72125842F480734FF459
:102B9000CA7213504FF4D272125842F480734FF439
:102BA000D27213501BE0026822F0800202604FF4E0
:102BB000C272125822F480734FF4C27213504FF451
:102BC000CA72125822F480734FF4CA7213504FF431
:102BD000D272125822F480734FF4D272135070479D
:102BE00010B502460020936803F08063B3F1806F54
:102BF00000D110E0936803F00063B3F1006F01D1DE
:102C0000012008E0936803F08053B3F1805F01D1A5
:102C1000022000E00420042879D002F5C07303EB01
:102C200000131B6803F0010402F5C07303EB0013EB
:102C30001C600B7A7BB94B7A0C8843EA445302F54B
:102C4000C07404EB00142468234302F5C07404EB41
:102C50000014236010E00B7A4C6843EAC4034C7AFA
:102C6000234302F5C07404EB00142468234302F5E7
:102C7000C07404EB001423608B7A03F00F038B7293
:102C800002F5C07303EB00135B6823F00F0402F539
:102C9000C07303EB00135C6002F5C07303EB001319
:102CA0005B688C7A234302F5C07404EB0014636004
:102CB0008B7B1C064B7B44EA034403E0006400402A
:102CC000006600400B7B44EA0323CC7A234302F5E1
:102CD000C07404EB0014A3608B7C1C064B7C44EA9C
:102CE00003440B7C44EA0323CC7B234302F5C074EA
:102CF00004EB0014E36002F5C07303EB00131B68E0
:102D000043F0010402F5C07303EB00131C6010BD17
:102D100010B50246002321B1012907D002290FD1A5
:102D200009E09068F94C00EA04030BE09068F84C65
:102D300000EA040306E09068F64C00EA040301E0B0
:102D4000002300BF00BFF44C181BA34216D007DCC1
:102D500083B16FF08060184470B1022818D111E07F
:102D6000B0F5007F10D0ED4C204448B1B0F5003FE5
:102D70000ED10BE002230DE000230BE0002309E05D
:102D8000002307E0012305E0012303E0012301E024
:102D9000002300BF00BFD8B210BD21B1012907D068
:102DA00002290FD109E0826842F0800282600AE0C5
:102DB000826842F40042826005E0826842F40002C8
:102DC000826000E000BF00BF704710B500F5D87307
:102DD00003EB01131B6803F004031372137A53B956
:102DE00000F5D87303EB01131B6840F2FF7404EA8B
:102DF0005353136009E000F5D87303EB01131B680C
:102E00006FF0604404EAD303536000F5D87303EB1A
:102E100001131B6803F00203537200F5D87303EB30
:102E200001135B6803F00F03937200F5D87303EB93
:102E300001135B681B0AD37400F5D87303EB01130D
:102E40009B68D37200F5D87303EB01139B681C0ACF
:102E5000147300F5D87303EB01139B681C0C5473B7
:102E600000F5D87303EB01139B681B0E937300F5F9
:102E7000D87303EB0113DB68D37300F5D87303EB4E
:102E80000113DB681C0A147400F5D87303EB0113FB
:102E9000DB681C0C547400F5D87303EB0113DB687A
:102EA0001B0E937421B9C36843F02003C36003E091
:102EB000036943F02003036110BD21B9C26842F0E9
:102EC0002002C26003E0026942F020020261704702
:102ED0000246002019B9D36803F0030006E0012977
:102EE00003D1136903F0030000E00020704710B520
:102EF00002460B4600204FF6FF71BBB9146824F060
:102F0000020444F00104146000E0491E546804F017
:102F10000304012C01D00029F7D1546804F0030404
:102F2000012C01D0002032E0012030E0012B13D130
:102F3000146824F00304146000E0491E546804F08F
:102F400003040CB10029F8D1546804F003040CB157
:102F500000201CE001201AE0022B17D1146824F095
:102F6000010444F00204146000E0491E546804F0B7
:102F70000304022C01D00029F7D1546804F00304A3
:102F8000022C01D0002002E0012000E0002010BD52
:102F9000014600200A6822F0010242F002020A60A3
:102FA0004A6802F00302022A00D10120704701465C
:102FB0004FF6FF7200200B6823F002030B6000E065
:102FC000521E4B6803F00203022B01D1002AF7D1F5
:102FD0004B6803F00203022B00D00120704701462A
:102FE00000208A6902F070007047014600208A695B
:102FF000100E7047014600208A69C2F307407047EF
:103000001AB143690B43436102E043698B43436157
:10301000704710B50246002001F4700343B1936974
:10302000C1F3130423400BB101202DE000202BE05D
:1030300001F0807343B15368C1F3130423400BB113
:10304000012021E000201FE001F0006343B19368FC
:10305000C1F3130423400BB1012015E0002013E05D
:1030600001F0007343B1D368C1F3130423400BB1E3
:10307000012009E0002007E01369C1F31304234095
:103080000BB1012000E0002010BD0022244B99422A
:1030900002D10023836111E0C1F3130201F0007338
:1030A0000BB1C2600AE001F080630BB1026105E080
:1030B00001F000630BB1826000E04260704702469D
:1030C000002002EA01030BB1012000E0002070475C
:1030D00070B504460D46002660692840002872D06D
:1030E000B5F5807F69D01DDC082D42D006DC012DAE
:1030F0002DD0022D31D0042D7FD134E0102D3ED0C3
:10310000202D42D0402D78D145E00000030000047E
:103110000003000800000310000100080001FFF791
:103120007000F030B5F5004F61D009DCB5F5007FD7
:103130004AD0B5F5806F4DD0B5F5006F5DD150E048
:10314000B5F5803F2DD0B5F5003F56D12FE0A068F2
:103150005549FFF7B4FF064651E0E0680321FFF749
:10316000AEFF06464BE0E0680821FFF7A8FF0646E1
:1031700045E0E0681021FFF7A2FF06463FE0206926
:103180000321FFF79CFF064639E020690821FFF77D
:1031900096FF064633E020691021FFF790FF0646B0
:1031A0002DE060680821FFF78AFF064627E0606887
:1031B0001021FFF784FF064621E0A0690121FFF7F7
:1031C0007EFF06461BE01BE0A0690221FFF777FFA8
:1031D000064614E0A0690421FFF771FF06460EE0E1
:1031E0000BE0A0697021FFF76AFF064607E0606800
:1031F0000421FFF764FF064601E0002600BF00E05F
:103200000026304670BDB1F5007F3AD00FDC202992
:1032100028D006DC01291CD004291DD0082940D162
:103220001DE0402921D0B1F5807F3AD126E0B1F5EB
:10323000004F31D006DCB1F5806F25D0B1F5006FBD
:103240002FD124E0B1F5803F12D0B1F5003F28D155
:1032500011E0154A826025E00822C26022E01022B7
:10326000C2601FE0082202611CE01022026119E026
:103270000822426016E01022426013E004224260FD
:1032800010E0042242600DE0042242600AE00022C5
:1032900082610422426005E00022826104224260D1
:1032A00000E000BF00BF70470101010010B5012020
:1032B000FEF704F80020FEF701F810BD2A49086067
:1032C00070472949091F0860704727498431086001
:1032D000704701460020254A10884FF67F42104073
:1032E0000843224A10807047014600201F4A108878
:1032F0004FF68072104008431C4A1080704708B592
:1033000000220092194A2C3A0092009A024400923C
:10331000009A116008BD08B50146002000901348CE
:103320002C3800900098084400900098008808BD50
:103330000D489C300068C0B270470C4808300088C7
:1033400040F0010009490831088070470648A03064
:103350000068C0B2704705480830008840F002009D
:10336000024908310880704704860D422C6C0040E9
:1033700010B501210807FDF794FF00214FF08050A0
:10338000FDF78FFF10BD2A49086270472849086180
:10339000704701460020274A106820F0E0000843EB
:1033A000106070472249A0310860704710B502468E
:1033B0000020204B186820F00300104318601E4BBB
:1033C0001B6843F004031C4C2360012901D130BF6A
:1033D00000E020BF184B1B6823F00403164C236049
:1033E00010BD1448006840F0040012490860084607
:1033F000006840F0020008600F48006840F00400D8
:103400000D49086000BF00BF30BF70470146002073
:10341000084A52680A400AB1012000E000207047C3
:103420000449096841EA8001024A116070470000BE
:1034300000000E420070004010ED00E00020444902
:103440000860091D0860091D0860091D08604148E1
:103450003F4914310860704700213D498279002AB4
:103460003AD00A46126803689A430B461A600A1D4E
:10347000126803689A430B1D1A60027911440A68A6
:1034800003681A430A60324A0832126803689A4392
:103490002F4B08331A601A1D126803689A432C4B8D
:1034A0000C331A604279102A0ED11A1F1268036871
:1034B0001A43274B08331A601A1D126803681A430F
:1034C000234B0C331A600DE02149427911440A68FC
:1034D00003681A430A6005E0027911440A68036828
:1034E0009A430A6070470021016001710C2141710B
:1034F0000021817170471649103109680143144A4F
:1035000010321160704701460020114A14321268CF
:103510000A400AB1012000E0002070470C49143134
:1035200008607047014600200022094B1B6803EA2F
:103530000102074B14331B680B4013B10AB1012081
:1035400000E0002070470249143108607047000015
:1035500000040140FFFF0F0001F0A1F804F08DFA14
:1035600005E002F01FFC04F0A8F804F078FAF8E790
:10357000704700BFFEE700BFFEE700BFFEE700BFE9
:10358000FEE770477047704710B500F03CF900F057
:103590006FF910BD10B5002440F225514748FEF7E1
:1035A0007FFF68B140F225514448FEF7A3FF43482E
:1035B000FEF7F6FEC4B200222146414800F035FA7B
:1035C00040F227713D48FEF76BFF28B1002240F220
:1035D00027713A48FEF77FFE10BD10B5002440F277
:1035E00025513848FEF75CFF68B140F22551354857
:1035F000FEF780FF3348FEF7D3FEC4B20022214617
:10360000314800F012FA40F227712E48FEF748FFC9
:1036100028B1002240F227712A48FEF75CFE10BD57
:1036200010B5002440F225512848FEF739FF68B153
:1036300040F225512548FEF75DFF2448FEF7B0FE15
:10364000C4B200222146224800F0EFF940F227716F
:103650001E48FEF725FF28B1002240F227711B48C3
:10366000FEF739FE10BD10B51A4A00211A48FFF7BF
:10367000ACFB1848007A042803D1012017490870D0
:1036800002E000201549087002211348FFF7BBFD36
:1036900010BD10B501211248FEF72DFD40B11148B3
:1036A0000068401C0F49086001210D48FEF734FDF9
:1036B00010BD10B50BF054FA10BD000000380140E9
:1036C000A03A010800440040D83A010800480040F0
:1036D000103B0108100C002000680040B4000020DE
:1036E00000040040B000002010B50346002000BFD9
:1036F00002E01C5C0C54401C9042FAD310BD2DE932
:10370000F04106460D461746002472B6FCF70BFF43
:103710003520FDF7A3F93046FCF74AFF002411E0FD
:10372000E21CAA5C1306A21CAA5C43EA0243621CC8
:10373000AA5C43EA02222B5D42EA03013019FDF73D
:1037400007F8241DBC42EBD3FCF7F9FE62B6BDE8D6
:10375000F08100B5142206490648FFF7C5FF00BDF9
:1037600010B5142202490348FFF7C9FF10BD00003D
:103770007403002000F8010830B546480068464A46
:10378000B0FBF2F1B1F1807F01D301201DE021F007
:103790007F40401E4FF0E022506150170F2200285A
:1037A00007DA13071D0E3D4B00F00F04241F1D55B3
:1037B00003E013071C0E3A4B1C5400BF00204FF0CF
:1037C000E022906107201061002008B100BFFEE7F1
:1037D00030BD00BF00BF00BF704701B56421009835
:1037E00048433049086000BF2E4800680028FBD1DC
:1037F00008BD01B52B490098086000BF2948006842
:103800000028FBD108BD28480068401C26490860F4
:10381000084600682049884211D3002022490860E8
:10382000224800680021494071EA000002D11F4986
:10383000086004E01D480068401C1C4908601A48E4
:10384000006842F21071B0FBF1F201FB120070B996
:10385000174800680021494071EA000002D114496C
:10386000086004E012480068401C11490860704775
:103870000C48006820B10B480068401E09490860E8
:10388000704702468A4201D3501A7047101C401AF2
:10389000FBE7000000000020A086010018ED00E01A
:1038A00000E400E02C000020300000202800002070
:1038B0003400002010B5002240F22551F848FEF7F0
:1038C0000AFD002240F22771F548FEF704FD0022B0
:1038D00040F22551F348FEF7FEFC002240F227712A
:1038E000F048FEF7F8FC002240F22551EE48FEF7C2
:1038F000F2FC002240F22771EB48FEF7ECFC10BD11
:1039000010B5012240F22551E548FEF7E4FC012202
:1039100040F22771E248FEF7DEFC012240F2255119
:10392000E048FEF7D8FC012240F22771DD48FEF79F
:10393000D2FC012240F22551DB48FEF7CCFC0122EB
:1039400040F22771D848FEF7C6FC10BD10B50446FA
:10395000FFF7B0FF0020A1680860E16808602169F6
:103960000860A1690860FFF7CBFF10BD2DE9F041A9
:1039700004460027A0680568E0680668AE4201D3E7
:10398000771B02E0AF1B6068C71B6068B84205D9AF
:103990006068A84202D96068B04203D82046FFF7A9
:1039A000D5FF00273846BDE8F08110B50446204613
:1039B000FFF7DCFF6168081A401E10BD70B50446B1
:1039C0000D462046FFF7D2FF08B9002070BDA16860
:1039D00020680968405C2870A0680068401CA168E5
:1039E00008606168884202D30020A1680860012055
:1039F000ECE72DE9F04180460D4616464046FFF7BC
:103A0000B5FFB04201D9304602E04046FFF7AEFFB5
:103A10000746002404E029194046FFF7CFFF641C45
:103A2000BC42F8D33846BDE8F0812DE9F0410446A8
:103A30000E4617469D480068616908602046FFF7FA
:103A4000B4FF80B9012F08D105E02046FFF7ADFF94
:103A5000054605B100E0F8E705E00120A16908602E
:103A60000020BDE8F081E168206809684654E068FC
:103A70000068401CE16808606168884202D3002049
:103A8000E16808600120ECE72DE9F0410646884630
:103A900014461F4685480068716908603046FFF784
:103AA00084FFA04206D22FB90120B169086000202E
:103AB000BDE8F081002506E018F805103A463046CA
:103AC000FFF7B3FF6D1CA542F6D32046F0E72DE9C2
:103AD000F05F04460F4690464FF000090026B346BB
:103AE0002046FFF743FF8146C14501D2484600E02A
:103AF00040468246002524E0A068006828446168AA
:103B000088420DD2A168206809680844405DB84227
:103B100016D1761C06F0010090B905F1010B0FE0FB
:103B2000A16820680968084428446168401A007840
:103B3000B84205D1761C06F0010008B905F1010B69
:103B40006D1C5545D8D3CA4507D106F0010020B1F8
:103B50002046FFF7FBFE4FF0000B5846BDE8F09FF4
:103B600070B504460D462046FFF700FFA84201D27B
:103B7000002070BDA06800686168491B884207D3B7
:103B8000D4E901010968401A281AA168086004E014
:103B9000A06800682844A16808600120E9E72DE9D1
:103BA000F04104460E4617464FF000082046FFF746
:103BB000DDFEB84202D20020BDE8F081A068D0F856
:103BC000008000250DE0404608F101082268105CE5
:103BD00006F8010B6068404502D86068A8EB000851
:103BE0006D1CBD42EFD32846E6E710B50446062C0F
:103BF00012D2DFE804F01103070B0F102C48FFF777
:103C0000A5FE09E02B48FFF7A1FE05E02A48FFF7D3
:103C10009DFE01E000E000BF00BF10BD10B50446EE
:103C2000012C04D0022C06D0032C0CD107E0204834
:103C3000FFF79CFE10BD1F48FFF798FEFAE71E48ED
:103C4000FFF794FEF6E70020F4E70146012904D0CF
:103C5000022906D003290CD107E0154880690068C5
:103C60007047144880690068FAE713488069006863
:103C7000F6E70020F4E738B5044600200090012C58
:103C800004D0022C07D0032C1DD117E06946084848
:103C9000FFF794FE17E069460648FFF78FFE12E033
:103CA0000038014000440040004800402800002047
:103CB000A03A0108D83A0108103B01086946FE48BD
:103CC000FFF77CFE00BF00BF9DF8000038BD70B557
:103CD00004460D461646012C04D0022C08D0032CB5
:103CE00012D10BE032462946F448FFF782FE70BD40
:103CF00032462946F248FFF77CFEF8E7324629466D
:103D0000ED48FFF776FEF2E70020F0E738B504460D
:103D10000025012C04D0022C18D0032C42D12BE01A
:103D2000E848FFF723FE80B16946E648FFF746FE04
:103D30009DF80010E448FEF72FFB00BF4021E24849
:103D4000FEF798FB0028F9D001252BE0DF48FFF7AC
:103D50000DFE80B16946DD48FFF730FE9DF800108A
:103D6000DB48FEF719FB00BF4021D948FEF782FB74
:103D70000028F9D0012515E0D648FFF7F7FD80B1FE
:103D80006946D448FFF71AFE9DF80010D248FEF7A6
:103D900003FB00BF4021D048FEF76CFB0028F9D0A0
:103DA000012500BF00BF284638BD70B504460D464A
:103DB000012C04D0022C0BD0032C1BD111E00122CA
:103DC0002946C048FFF731FE0120FFF79FFF11E0B1
:103DD00001222946BD48FFF728FE0220FFF796FF83
:103DE00008E001222946BB48FFF71FFE0320FFF72A
:103DF0008DFF00BF00BF70BD70B506460C4615466E
:103E0000012E04D0022E0CD0032E1ED113E005E0AB
:103E100014F8011B0120FFF7C8FF6D1E002DF7D11C
:103E200013E005E014F8011B0220FFF7BEFF6D1E32
:103E3000002DF7D109E005E014F8011B0320FFF77E
:103E4000B4FF6D1E002DF7D100BF00BF70BD70B56F
:103E500005460C46012D04D0022D0CD0032D1ED199
:103E600013E004E014F8011B0120FFF79EFF207807
:103E70000028F7D113E004E014F8011B0220FFF73B
:103E800094FF20780028F7D109E004E014F8011B22
:103E90000320FFF78AFF20780028F7D100BF00BF7A
:103EA00070BD0FB4F0B585B007460CA8009091E046
:103EB0000B9800785C281CD10B98401C0B90007864
:103EC0006E2809D072280FD10D213846FEF764FA0A
:103ED0000B98401C0B900BE00A213846FEF75CFA69
:103EE0000B98401C0B9003E00B98401C0B9000BFFC
:103EF00069E00B98007825285ED10B98401C0B9048
:103F0000007864281AD0702835D073284FD10098D3
:103F100010C800900BE021783846FEF73DFA00BF4C
:103F200040213846FEF7A6FA0028F9D0641C207814
:103F30000028F0D10B98401C0B903CE0009820C862
:103F400000900A2201A9284600F01DFC01AC0BE0FC
:103F500021783846FEF720FA00BF40213846FEF7A8
:103F600089FA0028F9D0641C20780028F0D10B9839
:103F7000401C0B901FE0009840C8009001A93046FB
:103F800000F032FC01AC0BE021783846FEF704FA71
:103F900000BF40213846FEF76DFA0028F9D0641CB6
:103FA00020780028F0D10B98401C0B9003E00B9870
:103FB000401C0B9000BF06E00B9810F8011B0B9003
:103FC0003846FEF7E9F900BF40213846FEF752FABD
:103FD0000028F9D00B98007800287FF469AF05B06D
:103FE000F0BC5DF814FB08B501210C20FDF725F9A4
:103FF00001214FF4C020FDF72DF901218803FDF7C1
:104000001CF94FF40170ADF8000018208DF8030082
:1040100003208DF8020069463048FCF7A3FD4FF4F9
:104020008060ADF8000018208DF8030003208DF8A3
:10403000020069462A48FCF795FD4FF48160ADF80F
:10404000000004208DF8030003208DF8020069466B
:104050002248FCF787FD4FF40060ADF80000042013
:104060008DF8030003208DF8020069461C48FCF718
:1040700079FD4FF40070ADF8000010208DF80300BA
:1040800003208DF8020069461548FCF76BFD4FF4DC
:1040900000711348FCF713FE4220ADF80000102019
:1040A0008DF8030003208DF8020069460C48FCF7E8
:1040B00059FD42210A4815E0103B0108A03A0108C9
:1040C000D83A0108BC3A010800380140F43A010826
:1040D000004400402C3B010800480040000801401B
:1040E000000C0140FCF7EDFD08BD08B525208DF85A
:1040F000000002208DF8010005208DF8020001204B
:104100008DF803006846FCF786F926208DF800003C
:1041100002208DF8010004208DF8020001208DF8A6
:1041200003006846FCF777F927208DF8000002208D
:104130008DF8010003208DF8020001208DF80300A6
:104140006846FCF768F908BD7FB505460C46009443
:104150000020ADF80400ADF80600ADF80800ADF899
:104160000C000C20ADF80A0069462846FEF71BF843
:10417000012240F225512846FEF7ADF8012240F217
:1041800027712846FEF7A7F840F225512846FEF78A
:10419000B1F901212846FEF792F87FBD70B50446BB
:1041A0000D46E1B20548FEF7F7F800BF402103488D
:1041B000FEF760F90028F9D0204670BD00380140B4
:1041C00070B505460C4645F25550FEF7ADF9284648
:1041D000FEF7ADF92046FEF7ADF9FEF7AEF9FEF7B2
:1041E000B1F970BD10B5FEF7A8F910BD10B50121E9
:1041F0000220FDF72FF810BD08B54FF4C060FCF7A2
:1042000005F91D208DF8000001208DF80100032024
:104210008DF8020001208DF803006846FCF7FBF8DA
:1042200008BDFEB506460C461546A0B2ADF8040022
:10423000ADF800500020ADF80600ADF80200694668
:104240003046FDF733F9012211463046FDF7A5FC53
:1042500001213046FDF786FCFEBD10B5FFF7C6FF15
:10426000FFF7CAFF48224FF47A710248FFF7D9FFDF
:1042700010BD00000004004008B501210820FCF733
:10428000DCFF01218806FCF7E5FF48208DF80300DC
:104290004FF48050ADF8000003208DF8020069460D
:1042A0006048FCF75FFC18208DF803004FF40050C5
:1042B000ADF8000003208DF8020069465948FCF76C
:1042C00051FC08BD08B54FF4C060FCF79FF8012011
:1042D0008DF801008DF802008DF803006846FCF7A8
:1042E0009AF808BD10B588B004462046FEF7E6FAF5
:1042F00000208DF81A008DF81B008DF81C008DF839
:104300001D008DF81E008DF81F008DF816008DF829
:1043100017000B208DF8180004208DF819000820D4
:10432000ADF8140005A92046FEF7E1FA00208DF84B
:104330000E008DF80F0001208DF810000020ADF860
:1043400004000120ADF806000020ADF80800ADF82B
:104350000A00ADF80C0001208DF8110001A8FEF74D
:1043600050FB012202212046FEF74AFE08B010BD94
:104370007FB505460C4600208DF80A008DF80D40EB
:104380006846FEF73EFB00212846FEF796FD7FBDFE
:104390001FB5044600208DF80A008DF80B0001209F
:1043A0008DF80C00C4F34F30ADF80000042000EB92
:1043B000C40080B2ADF802004FF6FF70ADF8040003
:1043C0004FF6F070ADF806000020ADF808000120AF
:1043D0008DF80D006846FEF714FB1FBD10B50446AE
:1043E000FFF74AFFFFF76EFF2046FFF77BFF10BD88
:1043F0002DE9F04105460E460027002431462846A7
:10440000FEF7EEFB074601E0601CC4B239462846C1
:10441000FEF77EFC8046012801D0FF2CF4DB4046ED
:10442000BDE8F081000C014008B501210420FCF733
:1044300004FFE020ADF8000018208DF803000320F1
:104440008DF8020069464048FCF78CFBE0213E48AD
:10445000FCF735FC08BD10B501210803FCF7EDFEA3
:1044600010BD70B505460E46002405E0601CC4B2C0
:10447000C82C01DB002070BD02212846FEF7E4F9BC
:104480000028F3D031462846FEF78BF9002405E0DA
:10449000601CC4B2C82C01DB0020ECE701212846D7
:1044A000FEF7D2F90028F3D02846FEF77CF9C0B217
:1044B000E1E730B585B005460C460020ADF80000B8
:1044C0004FF48270ADF802000020ADF80400022025
:1044D000ADF806000120ADF808004002ADF80A0072
:1044E000ADF80C400020ADF80E000720ADF810002C
:1044F00069462846FEF75EF801212846FEF720F9B6
:10450000FF212846FFF7ADFF05B030BD10B50446CA
:10451000FFF78AFFFFF79FFF38212046FFF7C9FF0B
:1045200010BD70B505460C46084800884FF6C771A7
:104530000840064908800846008820430880012179
:104540002846FEF7FDF870BD00080140003001402C
:1045500010B501213C20FCF770FE01218803FCF717
:104560006CFE01214FF4C020FCF774FE10BD08B5AD
:104570004FF40070ADF8000003208DF80200182001
:104580008DF8030069465D48FCF7ECFA4FF4806053
:10459000ADF8000004208DF8030069465748FCF789
:1045A000E1FA0420ADF8000003208DF80200182085
:1045B0008DF8030069465148FCF7D4FA0820ADF89D
:1045C000000004208DF8030069464C48FCF7CAFA45
:1045D0004FF48060ADF8000003208DF80200182031
:1045E0008DF8030069464648FCF7BCFA4FF40060BA
:1045F000ADF8000004208DF8030069464048FCF740
:10460000B1FA4020ADF8000003208DF80200102020
:104610008DF8030069463A48FCF7A4FA8020ADF80B
:10462000000003208DF8020010208DF80300694679
:104630003348FCF797FA08BD08B500214FF0005049
:10464000FBF71BFF00214FF00060FBF716FF4FF454
:10465000E060FBF7DBFE25208DF8000000208DF8E0
:10466000020001208DF803006846FBF7D4FE2620E7
:104670008DF8000001208DF802008DF803006846D7
:10468000FBF7C9FE27208DF8000002208DF80200FC
:1046900001208DF803006846FBF7BDFE08BD10B58C
:1046A000FFF76AF8FFF754FFFFF761FFFFF7C4FF5A
:1046B00062B64FF4E1311348FFF746FD4FF416514F
:1046C0001148FFF741FD4FF4E1311048FFF73CFD81
:1046D000FFF7C3FD0E48FFF781FE01F0E6FB09F08E
:1046E000ABFD09F0B8FD09F0ADFD0CF041FF8021F4
:1046F0000348FCF7E4FA01F08FFD10BD000801400B
:10470000000C0140003801400044004000480040D7
:104710000068004070B504460CF06AFF0068055D53
:1047200085EA850000F0800000B930240CF060FFBD
:104730000068005D202803D1A4F13000C4B20DE070
:104740000CF056FF0068005D00F0080018B120462C
:104750000CF05BFFC4B2A4F13700C4B2204670BDB8
:104760000146002905DB092903DC01F13002D0B242
:1047700008E0092905DD0F2903DC01F13702D0B279
:1047800000E000207047F0B503460D4616460027AE
:1047900029460A2E03D0002008702846F0BD33B900
:1047A000302001F8010B002008702846F6E7002BA6
:1047B00003DA2D2001F8010B5B4242F210720DE08A
:1047C00093FBF2F404B937B104F1300001F8010BA6
:1047D00004FB123301270A2092FBF0F2002AEFDCDF
:1047E000002008702846D9E7F0B505460E4600229D
:1047F000002331463DB9302001F8010B01F8010BCF
:1048000000213046F0BD002422E0C4F10300C000C6
:1048100025FA00F0C7B23A0907F00F0302B9ABB1AD
:104820000A2A04DB02F1370001F8010B03E002F170
:10483000300001F8010B0A2B04DB03F1370001F80B
:10484000010B03E003F1300001F8010B601CC4B25E
:10485000042CDADB002008703046D3E72DE9F04164
:1048600006460F46144614B90020BDE8F0813546CF
:104870000DE0394628460CF005FF054605B90AE06B
:104880002CB1681C0546007808B9002503E020001B
:10489000A4F10104EDD100BF2846E6E708B53C4885
:1048A00000909DF80000122801D1012008BD0020D1
:1048B000FCE701460806000C40EA1120704700B5ED
:1048C0000246FFF7EBFF08B1104600BD1046FFF7A8
:1048D000F0FFFAE70146080601F47F4240EA0220B1
:1048E00001F47F0240EA122040EA1160704710B5DF
:1048F0000446FFF7D3FF08B1204610BD2046FFF75E
:10490000E9FFFAE72DE9F04707460D4628460CF087
:10491000D7FE804600240EE00CF06AFE0068295D98
:1049200010F8019089EA890000F0800010B9002099
:10493000BDE8F087641C4445EED308F0010080B95F
:10494000002400260AE0601C285C3038295D40EA1B
:104950000110C2B23046761C3A54A41C4445F2D32E
:1049600014E00026287830383146761C785401242B
:104970000AE0601C285C3038295D40EA0110C2B2B0
:104980003046761C3A54A41C4445F2D33046CFE757
:1049900078563412014600204A790B7942EA032204
:1049A000CB7842EA03428B7842EA03624B7842EAD0
:1049B00043620B7842EA83607047014601F00700CA
:1049C000F74A107001F00100507001F00100907082
:1049D000D170117151711046704701460878F14A43
:1049E0001070487850700879907008790020001293
:1049F000D0704868C0F3C4404A6802F4E02240EA3C
:104A0000E220E84A10714868C0F30060C0014A68BB
:104A100040EA5260E34A5071087A9071487AD07146
:104A20001046704701460878DF4A10704878507089
:104A3000087900F0E0000014CA7840EA22208A7861
:104A40001043D94A526860F31202D748426008798D
:104A5000D54A526860F3D742D34842604879D24A77
:104A6000526860F31862D04842604879CE4A526872
:104A700060F35F62CC4842608879CB4A1072C87993
:104A80005072104670472DE9F04104460D46164617
:104A900000270021C548FFF76BFC47EA846040EA25
:104AA000052040EA06073846FFF772FCBDE8F081B2
:104AB00030B504460B46BE4844600420BC4D287205
:104AC0000020687228468372002105E00025B8485E
:104AD0000B304554481CC1B20829F7DB002105E022
:104AE000555CB3480B304554481CC1B29942F7DBC2
:104AF000AF4830BD2DE9F04104460D46164632461A
:104B000029462046FFF7D4FF80464146A748FFF7D5
:104B10006FFC07463846BDE8F0817FB50824A5A1A3
:104B200003C9CDE90001A54802784EF6FF610620D1
:104B3000FFF7A9FF06208DF8080000208DF8090076
:104B40008DF80A00EE208DF80B00FF208DF80C0088
:104B50009A4800788DF80D0002A8FFF71BFF054664
:104B60006A4621462846FFF7C5FF002094490860A1
:104B700000BF93480068FA2803D8924800780028BC
:104B8000F7D09048007850B18F480079FE2803D1C3
:104B9000F9208A49087002E0FA20884908707FBD30
:104BA0002DE9FE4305460C4616468DF804500020BC
:104BB0008DF805008DF80600EA208DF807008DF8C5
:104BC00008607E4800788DF8090001A8FFF7E2FE32
:104BD0008046E0B28DF80000200A8DF80100200C1C
:104BE0008DF802006A4603214046FFF783FF07461F
:104BF000012F01D1BDE8FE830020FBE72DE9FC4138
:104C000004460D46164606208DF8000000208DF85B
:104C100001008DF80200EF208DF803008DF80440AC
:104C2000664800788DF805006846FFF7B3FE8046B9
:104C3000324629464046FFF75DFF0746012F01D166
:104C4000BDE8FC810020FBE72DE9FF4105460C464D
:104C500000200090019006208DF8080000208DF8BB
:104C600009008DF80A00E8208DF80B00FF208DF870
:104C70000C00524800788DF80D0002A8FFF78AFE5C
:104C800007468DF80050FF208DF801008DF80400D4
:104C90008DF803008DF80200E0B28DF80500200ABF
:104CA0008DF80600200C8DF807006A46082138466A
:104CB000FFF720FF0646012E02D104B0BDE8F081C7
:104CC0000020FAE70FB410B5079C00219DF81A00E8
:104CD00002049DF8190042EA00209DF8182040EADD
:104CE00002013A4A0398904211D1A1420FD19DF896
:104CF000130020B1012806D0022808D105E00020C9
:104D000010BC5DF814FB0120FAE70220F8E703204D
:104D1000F6E72F48007898B100202D4908702849FF
:104D2000086000BF26480068FA2803D825480078A4
:104D30000028F7D02348007810B1002021490870DE
:104D400070473EB50020019002901F4841680198CD
:104D500061F31C0001909DF8070020F020008DF801
:104D600007009DF8070020F0400040308DF8070054
:104D70009DF8070020F0800080308DF80700124871
:104D80000B3000909DF80740E309C4F38012C4F390
:104D90004011019C24F0604005F017F83EBD000072
:104DA000B9000020BF000020240E00200064004055
:104DB000300E0020FFFF0000FFFFFFFFB7000020C4
:104DC000B0000020B4000020100C002000FFE81804
:104DD000B800002010B500224FF6CA610620FFF788
:104DE00052FE00224FF6CA610620FFF7D9FE0020CE
:104DF000FA49086000BFF9480068FA2803D8F84863
:104E000000780028F7D0F648007820B10020F44957
:104E10000870FFF796FF10BD10B500224FF6CB616A
:104E20000620FFF730FE00224FF6CB610620FFF789
:104E3000B7FE0020E949086000BFE8480068FA288A
:104E400003D8E74800780028F7D0E548007820B17B
:104E50000020E3490870FFF774FF10BD10B5002271
:104E60004FF6D3610620FFF70EFE00224FF6D36106
:104E70000620FFF795FE0020D849086000BFD748FC
:104E80000068FA2803D8D64800780028F7D0D4481C
:104E9000007820B10020D2490870FFF752FF10BD02
:104EA00010B500224FF6CE610620FFF7ECFD002280
:104EB0004FF6CE610620FFF773FE0020C749086059
:104EC00000BFC6480068FA2803D8C5480078002803
:104ED000F7D0C348007820B10020C1490870FFF71F
:104EE00030FF10BD10B500224FF6E9610620FFF734
:104EF000CAFD00224FF6E9610620FFF751FE0020AF
:104F0000B649086000BFB5480068FA2803D8B4481D
:104F100000780028F7D0B248007820B10020B049CE
:104F20000870FFF70EFF10BD10B500224FF6E861C4
:104F30000620FFF7A8FD00224FF6E8610620FFF7E4
:104F40002FFE0020A549086000BFA4480068FA2889
:104F500003D8A34800780028F7D0A148007820B1F2
:104F600000209F490870FFF7ECFE10BD10B500222D
:104F70004FF6EA610620FFF786FD00224FF6EA6150
:104F80000620FFF70DFE00209449086000BF9348FB
:104F90000068FA2803D8924800780028F7D0904893
:104FA000007820B100208E490870FFF7CAFE10BDBE
:104FB00010B500224FF6E0610620FFF764FD0022E5
:104FC0004FF6E0610620FFF7EBFD00208349086003
:104FD00000BF82480068FA2803D88148007800287A
:104FE000F7D07F48007820B100207D490870FFF796
:104FF000A8FE10BD10B500224FF6FA610620FFF79B
:1050000042FD00224FF6FA610620FFF7C9FD00209D
:105010007249086000BF71480068FA2803D87048D8
:1050200000780028F7D06E48007820B100206C4945
:105030000870FFF786FE10BD10B500224FF2040184
:105040000320FFF720FD00224FF204010320FFF7A9
:10505000A7FD00206149086000BF60480068FA2889
:1050600003D85F4800780028F7D05D48007820B169
:1050700000205B490870FFF764FE10BD10B50022E8
:105080004FF6E3610620FFF7FEFC00224FF6E361D6
:105090000620FFF785FD002415E000204F49086039
:1050A00000BF4E480068C82803D84D480078002843
:1050B000F7D04B48007820B1002049490870FFF72D
:1050C00040FE601CC4B2042CE7DB10BD10B500220A
:1050D0004FF6E5610620FFF7D6FC00224FF6E561AA
:1050E0000620FFF75DFD00203C49086000BF3B48FB
:1050F0000068FA2803D83A4800780028F7D03848E2
:10510000007820B1002036490870FFF71AFE10BD64
:1051100010B500224FF6EE610620FFF7B4FC002226
:105120004FF6EE610620FFF73BFD00202B4908609B
:1051300000BF2A480068FA2803D8294800780028C8
:10514000F7D02748007820B1002025490870FFF7E4
:10515000F8FD10BD10B500224FF6EF610620FFF7F5
:1051600092FC00224FF6EF610620FFF719FD0020A8
:105170001A49086000BF19480068FA2803D818487F
:1051800000780028F7D01648007820B10020144994
:105190000870FFF7D6FD10BD10B500224FF6DB6199
:1051A0000620FFF770FC00224FF6DB610620FFF7B8
:1051B000F7FC00200949086000BF08480068FA2889
:1051C00003D8074800780028F7D00548007820B1B8
:1051D000002003490870FFF7B4FD10BDB0000020A7
:1051E000B400002010B500224FF6B7610620FFF78B
:1051F0004AFC00224FF6B7610620FFF7D1FC0024DD
:1052000015E000204F49086000BF4E480068C828DC
:1052100003D84D4800780028F7D04B48007820B1DB
:10522000002049490870FFF78CFD601CC4B2022CB5
:10523000E7DB10BD10B500224FF694610620FFF7A2
:1052400022FC00224FF694610620FFF7A9FC002003
:105250003C49086000BF3B480068FA2803D83A4838
:1052600000780028F7D03848007820B1002036496F
:105270000870FFF766FD10BD10B500224FF6936170
:105280000620FFF700FC00224FF693610620FFF78F
:1052900087FC00202B49086000BF2A480068FA28D4
:1052A00003D8294800780028F7D02748007820B193
:1052B000002025490870FFF744FD10BD10B50022FD
:1052C0004FF692610620FFF7DEFB00224FF6926157
:1052D0000620FFF765FC00201A49086000BF194846
:1052E0000068FA2803D8184800780028F7D0164834
:1052F000007820B1002014490870FFF722FD10BD8E
:1053000010B500224FF66A610620FFF7BCFB0022B1
:105310004FF66A610620FFF743FC00200949086048
:1053200000BF08480068FA2803D80748007800281A
:10533000F7D00548007820B1002003490870FFF736
:1053400000FD10BDB0000020B400002070B5044680
:10535000FE4881680320884738B1FC480168032073
:1053600088470020C4F8980070BDF84841680320C1
:10537000884786B24DE0F548C16803208847054656
:105380000A2D0ED0242D25D1002044F8980F216835
:10539000481C44F8980965540020D4F898106054CB
:1053A00036E0D4F89800401E205C0D280ED154F849
:1053B000981F2068401C44F8980965540020D4F8D0
:1053C00098106054C4F898000120CDE70020C4F87C
:1053D0009800C9E7D4F89800401E205C0D2803D13E
:1053E0000020C4F89800BFE754F8981F2068401CBC
:1053F00044F8980965540020D4F898106054D4F803
:105400009800962803DB0020C4F89800ACE700BFA2
:1054100000BF3000A6F101018EB2ACD100BFA3E7FE
:105420000146CA1701EB92729210A1EB820292B967
:10543000642091FBF0F200FB121050B94FF4C870D9
:1054400091FBF0F200FB121008B901207047002018
:10545000FCE70120FAE70020F8E72DE9F0470646CF
:105460000C460027BA460025A846F08840F2B271E3
:10547000884204DBF08840F63301884201DDBDE854
:10548000F08740F2B2790CE04846FFF7C9FF10B14F
:10549000AF48074401E0AF48074409F101001FFA93
:1054A00080F9F0884845EFDC4FF0000914E0AA4885
:1054B00010F8090040F2A321484307EBC017F08819
:1054C000FFF7AEFF20B1B9F1010F01D1A3480744A6
:1054D00009F101001FFA80F9307A401E4845E6DCE8
:1054E000707A401E40F2A321484307EBC017B07A00
:1054F0000830C0EB4011C1EB002007EB0017F07A39
:10550000C0EB001007EB8007307B07449348B7FBE4
:10551000F0F5AA4544D0AA4640F2B27814E04046DD
:10552000FFF77EFF50B1B5F5B77F02D3A5F5B7758C
:1055300006E008F101001FFA80F808E0A5F26D15F9
:1055400008F101001FFA80F8B5F5B67FE7D800BF73
:10555000A4F806804FF000081AE0E088FFF760FF2B
:1055600038B1B8F1010F04D11D2D01D31D3D0BE061
:1055700010E0794810F80800A84204D8764810F8DE
:1055800008002D1A00E005E008F101001FFA80F87C
:105590001C2DE2D200BF08F101002072681C60726D
:1055A0006E48B7FBF0F100FB11754FF46160B5FB7D
:1055B000F0F0A0724FF46160B5FBF0F100FB115008
:1055C0003C21B0FBF1F0E0724FF46160B5FBF0F10B
:1055D00000FB11503C21B0FBF1F201FB12002073E3
:1055E000A079A0F5FA60C0B20A2190FBF1F201FBAC
:1055F0001201A079A0F5FA60C0B20A2290FBF2F085
:1056000041EA00102070207A0A2190FBF1F201FBA0
:1056100012010A2290FBF2F041EA00106070607AF9
:105620000A2190FBF1F201FB12010A2290FBF2F039
:1056300041EA0010A070A07A0A2190FBF1F201FB70
:1056400012010A2290FBF2F041EA0010E070E07AC9
:105650000A2190FBF1F201FB12010A2290FBF2F009
:1056600041EA00102071207B0A2190FBF1F201FB3E
:1056700012010A2290FBF2F041EA001060713848F2
:1056800090F8380090B13748016837480068FEF755
:10569000F8F8B0F5167F02D83448007830B9012008
:1056A00032490870304800682E49086000BFE6E6BD
:1056B0002DE9F14F8AB000BF01222DA10A98FFF712
:1056C000CDF8044602222AA10A98FFF7C7F805463A
:1056D000002C54D0C5B3641C281BC6B2A6B30F2E31
:1056E0004DDA24A120460BF0CDFF8146B9F1000F21
:1056F00045D0A94543D2A9EB0400C6B2062E3ED13F
:10570000607830382178303901EB810100EB4100BD
:1057100000F0FF0AE0783038A178303901EB8101E0
:1057200000EB410000F0FF0B60793038217930390F
:1057300001EB810100EB4100C0B20890084880F8FD
:1057400010A080F811B017E019E00000483B0108F4
:105750000085E2018033E1016C3B010880510100CA
:10576000440E0020CC00002028000020C8000020AB
:105770002C0000002E000000FD49089888740222C9
:10578000AFF214010A98FFF769F804460322AFF25A
:1057900020010A98FFF762F805467CB175B1641CD8
:1057A000281BC6B2012E09D12078412803D101203F
:1057B000EF49087002E00020ED4908700322AFF2C3
:1057C00050010A98FFF74AF804460422AFF260013C
:1057D0000A98FFF743F80546002C4FD0002D4DD016
:1057E000641C281BC6B2002E48D00F2E46DAAFF23A
:1057F0007C0120460BF046FF8146B9F1000F3DD0F9
:10580000A9453BD2A9EB040000F0FF0AA5EB090073
:10581000401E00F0FF0BBAF1040F2FD1BBF10A0FAD
:105820002CDC607830382178303901EB810100EBD5
:10583000410000F0FF0AA41C20460DF0CBFB0746F8
:1058400088460022CB4B384641460CF07DF8CDE926
:10585000020150460CF001F9CDE90001DDE9022317
:105860000BF059FF0022C44BCDE904010BF0FAFF05
:10587000CDE906010CF01DF9BD4948620422AFF2E2
:1058800010110A98FEF7EAFF04460522AFF2201134
:105890000A98FEF7E3FF05468CB185B1641C281B0E
:1058A000C6B2012E0BD12078532804D10120B04973
:1058B00081F8280003E00020AD4981F82800052286
:1058C000AFF254110A98FEF7C9FF04460622AFF260
:1058D00060110A98FEF7C2FF0546002C55D0002D36
:1058E00053D0641C281BC6B2F6B3102E4DDAAFF2AB
:1058F0007C1120460BF0C6FE8146B9F1000F44D062
:10590000A94542D2A9EB040000F0FF0AA5EB09006B
:10591000401E00F0FF0BBAF1050F36D1BBF10A0FA4
:1059200033DC20783038642148436178303901EB2A
:10593000810100EB4101A0783038084400F0FF0AF3
:10594000E41C20460DF046FB074688460022894BA2
:10595000384641460BF0F8FFCDE9020150460CF005
:105960007CF8CDE9000100E00FE0DDE902230BF057
:10597000D2FE0022804BCDE904010BF073FFCDE98C
:1059800006010CF096F87A49C8620622AFF220218F
:105990000A98FEF763FF04460722AFF22C210A980B
:1059A000FEF75CFF05468CB185B1641C281BC6B2AE
:1059B000012E0BD12078572804D101206C4981F8A1
:1059C000300003E000206A4981F830000722AFF27E
:1059D00060210A98FEF742FF04460822AFF27021C8
:1059E0000A98FEF73BFF0546F4B1EDB1641C281B95
:1059F000C6B2CEB1082E17DA20460DF0EBFA0746F4
:105A000088465E4A5E4B384641460BF02BFF00222B
:105A10005C4BCDE904010BF025FFCDE906010CF04C
:105A200029F800B2524988860822AFF2BC210A98B0
:105A3000FEF714FF04460922AFF2CC210A98FEF7C4
:105A40000DFF054694B18DB1641C281BC6B26EB122
:105A5000082E0BDA20460DF0BDFA07468846384678
:105A600041460CF007F800B24149C8860922AFF25E
:105A700000310A98FEF7F2FE04460A22AFF2103116
:105A80000A98FEF7EBFE0546002C7DD0002D7BD05A
:105A9000641C281BC6B2062E76D160783038217877
:105AA000303901EB810100EB410000F0FF0AE078A2
:105AB0003038A178303901EB810100EB410000F072
:105AC000FF0B607930382179303901EB810100EB2F
:105AD0004100C0B20890264880F80FA080F80EB0B0
